{
    "_format": "hh-sol-artifact-1",
    "contractName": "Whitelist",
    "sourceName": "contracts/Whitelist.sol",
    "abi": [
        {
            "inputs": [
                {
                    "internalType": "uint256",
                    "name": "_maxWhitelist",
                    "type": "uint256"
                }
            ],
            "stateMutability": "nonpayable",
            "type": "constructor"
        },
        {
            "inputs": [],
            "name": "maxWhitelist",
            "outputs": [
                {
                    "internalType": "uint256",
                    "name": "",
                    "type": "uint256"
                }
            ],
            "stateMutability": "view",
            "type": "function"
        },
        {
            "inputs": [],
            "name": "numwhitelistedAddresses",
            "outputs": [
                {
                    "internalType": "uint256",
                    "name": "",
                    "type": "uint256"
                }
            ],
            "stateMutability": "view",
            "type": "function"
        },
        {
            "inputs": [
                {
                    "internalType": "address",
                    "name": "_user",
                    "type": "address"
                }
            ],
            "name": "whitelist",
            "outputs": [],
            "stateMutability": "nonpayable",
            "type": "function"
        },
        {
            "inputs": [
                {
                    "internalType": "address",
                    "name": "",
                    "type": "address"
                }
            ],
            "name": "whitelistedAddresses",
            "outputs": [
                {
                    "internalType": "bool",
                    "name": "",
                    "type": "bool"
                }
            ],
            "stateMutability": "view",
            "type": "function"
        }
    ],
    "bytecode": "0x608060405234801561001057600080fd5b506040516104293803806104298339818101604052810190610032919061007a565b80600081905550506100a7565b600080fd5b6000819050919050565b61005781610044565b811461006257600080fd5b50565b6000815190506100748161004e565b92915050565b6000602082840312156100905761008f61003f565b5b600061009e84828501610065565b91505092915050565b610373806100b66000396000f3fe608060405234801561001057600080fd5b506004361061004c5760003560e01c806306c933d8146100515780635cc12fed146100815780639b19251a1461009f578063bf0d96c3146100bb575b600080fd5b61006b60048036038101906100669190610243565b6100d9565b604051610078919061028b565b60405180910390f35b6100896100f9565b60405161009691906102bf565b60405180910390f35b6100b960048036038101906100b49190610243565b6100ff565b005b6100c36101da565b6040516100d091906102bf565b60405180910390f35b60016020528060005260406000206000915054906101000a900460ff1681565b60025481565b600160008273ffffffffffffffffffffffffffffffffffffffff1673ffffffffffffffffffffffffffffffffffffffff16815260200190815260200160002060009054906101000a900460ff161561015657600080fd5b6000546002541061016657600080fd5b6001600260008282546101799190610309565b9250508190555060018060008373ffffffffffffffffffffffffffffffffffffffff1673ffffffffffffffffffffffffffffffffffffffff16815260200190815260200160002060006101000a81548160ff02191690831515021790555050565b60005481565b600080fd5b600073ffffffffffffffffffffffffffffffffffffffff82169050919050565b6000610210826101e5565b9050919050565b61022081610205565b811461022b57600080fd5b50565b60008135905061023d81610217565b92915050565b600060208284031215610259576102586101e0565b5b60006102678482850161022e565b91505092915050565b60008115159050919050565b61028581610270565b82525050565b60006020820190506102a0600083018461027c565b92915050565b6000819050919050565b6102b9816102a6565b82525050565b60006020820190506102d460008301846102b0565b92915050565b7f4e487b7100000000000000000000000000000000000000000000000000000000600052601160045260246000fd5b6000610314826102a6565b915061031f836102a6565b9250828201905080821115610337576103366102da565b5b9291505056fea2646970667358221220eab36f6bd6e1f1734f1816ceafdde120c234bc8aa091f037a161b06c8fc09ac964736f6c63430008110033",
    "linkReferences": {},
    "deployedLinkReferences": {}
}